{
  "_format": "hh-sol-artifact-1",
  "contractName": "CryptoDoor",
  "sourceName": "contracts/CryptoDoor.sol",
  "abi": [
    {
      "inputs": [],
      "stateMutability": "nonpayable",
      "type": "constructor"
    },
    {
      "anonymous": false,
      "inputs": [
        {
          "indexed": true,
          "internalType": "address",
          "name": "account",
          "type": "address"
        },
        {
          "indexed": true,
          "internalType": "address",
          "name": "operator",
          "type": "address"
        },
        {
          "indexed": false,
          "internalType": "bool",
          "name": "approved",
          "type": "bool"
        }
      ],
      "name": "ApprovalForAll",
      "type": "event"
    },
    {
      "anonymous": false,
      "inputs": [
        {
          "indexed": true,
          "internalType": "address",
          "name": "previousOwner",
          "type": "address"
        },
        {
          "indexed": true,
          "internalType": "address",
          "name": "newOwner",
          "type": "address"
        }
      ],
      "name": "OwnershipTransferred",
      "type": "event"
    },
    {
      "anonymous": false,
      "inputs": [
        {
          "indexed": true,
          "internalType": "address",
          "name": "operator",
          "type": "address"
        },
        {
          "indexed": true,
          "internalType": "address",
          "name": "from",
          "type": "address"
        },
        {
          "indexed": true,
          "internalType": "address",
          "name": "to",
          "type": "address"
        },
        {
          "indexed": false,
          "internalType": "uint256[]",
          "name": "ids",
          "type": "uint256[]"
        },
        {
          "indexed": false,
          "internalType": "uint256[]",
          "name": "values",
          "type": "uint256[]"
        }
      ],
      "name": "TransferBatch",
      "type": "event"
    },
    {
      "anonymous": false,
      "inputs": [
        {
          "indexed": true,
          "internalType": "address",
          "name": "operator",
          "type": "address"
        },
        {
          "indexed": true,
          "internalType": "address",
          "name": "from",
          "type": "address"
        },
        {
          "indexed": true,
          "internalType": "address",
          "name": "to",
          "type": "address"
        },
        {
          "indexed": false,
          "internalType": "uint256",
          "name": "id",
          "type": "uint256"
        },
        {
          "indexed": false,
          "internalType": "uint256",
          "name": "value",
          "type": "uint256"
        }
      ],
      "name": "TransferSingle",
      "type": "event"
    },
    {
      "anonymous": false,
      "inputs": [
        {
          "indexed": false,
          "internalType": "string",
          "name": "value",
          "type": "string"
        },
        {
          "indexed": true,
          "internalType": "uint256",
          "name": "id",
          "type": "uint256"
        }
      ],
      "name": "URI",
      "type": "event"
    },
    {
      "inputs": [
        {
          "internalType": "address",
          "name": "account",
          "type": "address"
        },
        {
          "internalType": "uint256",
          "name": "id",
          "type": "uint256"
        }
      ],
      "name": "balanceOf",
      "outputs": [
        {
          "internalType": "uint256",
          "name": "",
          "type": "uint256"
        }
      ],
      "stateMutability": "view",
      "type": "function"
    },
    {
      "inputs": [
        {
          "internalType": "address[]",
          "name": "accounts",
          "type": "address[]"
        },
        {
          "internalType": "uint256[]",
          "name": "ids",
          "type": "uint256[]"
        }
      ],
      "name": "balanceOfBatch",
      "outputs": [
        {
          "internalType": "uint256[]",
          "name": "",
          "type": "uint256[]"
        }
      ],
      "stateMutability": "view",
      "type": "function"
    },
    {
      "inputs": [
        {
          "internalType": "address",
          "name": "account",
          "type": "address"
        },
        {
          "internalType": "address",
          "name": "operator",
          "type": "address"
        }
      ],
      "name": "isApprovedForAll",
      "outputs": [
        {
          "internalType": "bool",
          "name": "",
          "type": "bool"
        }
      ],
      "stateMutability": "view",
      "type": "function"
    },
    {
      "inputs": [
        {
          "internalType": "uint256",
          "name": "id",
          "type": "uint256"
        }
      ],
      "name": "mint",
      "outputs": [],
      "stateMutability": "nonpayable",
      "type": "function"
    },
    {
      "inputs": [],
      "name": "name",
      "outputs": [
        {
          "internalType": "string",
          "name": "",
          "type": "string"
        }
      ],
      "stateMutability": "view",
      "type": "function"
    },
    {
      "inputs": [],
      "name": "owner",
      "outputs": [
        {
          "internalType": "address",
          "name": "",
          "type": "address"
        }
      ],
      "stateMutability": "view",
      "type": "function"
    },
    {
      "inputs": [],
      "name": "renounceOwnership",
      "outputs": [],
      "stateMutability": "nonpayable",
      "type": "function"
    },
    {
      "inputs": [
        {
          "internalType": "address",
          "name": "from",
          "type": "address"
        },
        {
          "internalType": "address",
          "name": "to",
          "type": "address"
        },
        {
          "internalType": "uint256[]",
          "name": "ids",
          "type": "uint256[]"
        },
        {
          "internalType": "uint256[]",
          "name": "amounts",
          "type": "uint256[]"
        },
        {
          "internalType": "bytes",
          "name": "data",
          "type": "bytes"
        }
      ],
      "name": "safeBatchTransferFrom",
      "outputs": [],
      "stateMutability": "nonpayable",
      "type": "function"
    },
    {
      "inputs": [
        {
          "internalType": "address",
          "name": "from",
          "type": "address"
        },
        {
          "internalType": "address",
          "name": "to",
          "type": "address"
        },
        {
          "internalType": "uint256",
          "name": "id",
          "type": "uint256"
        },
        {
          "internalType": "uint256",
          "name": "amount",
          "type": "uint256"
        },
        {
          "internalType": "bytes",
          "name": "data",
          "type": "bytes"
        }
      ],
      "name": "safeTransferFrom",
      "outputs": [],
      "stateMutability": "nonpayable",
      "type": "function"
    },
    {
      "inputs": [
        {
          "internalType": "address",
          "name": "operator",
          "type": "address"
        },
        {
          "internalType": "bool",
          "name": "approved",
          "type": "bool"
        }
      ],
      "name": "setApprovalForAll",
      "outputs": [],
      "stateMutability": "nonpayable",
      "type": "function"
    },
    {
      "inputs": [
        {
          "internalType": "bool",
          "name": "_stopMint",
          "type": "bool"
        }
      ],
      "name": "setStopMint",
      "outputs": [],
      "stateMutability": "nonpayable",
      "type": "function"
    },
    {
      "inputs": [
        {
          "internalType": "string",
          "name": "_newURI",
          "type": "string"
        }
      ],
      "name": "setURI",
      "outputs": [],
      "stateMutability": "nonpayable",
      "type": "function"
    },
    {
      "inputs": [
        {
          "internalType": "bytes4",
          "name": "interfaceId",
          "type": "bytes4"
        }
      ],
      "name": "supportsInterface",
      "outputs": [
        {
          "internalType": "bool",
          "name": "",
          "type": "bool"
        }
      ],
      "stateMutability": "view",
      "type": "function"
    },
    {
      "inputs": [
        {
          "internalType": "address",
          "name": "newOwner",
          "type": "address"
        }
      ],
      "name": "transferOwnership",
      "outputs": [],
      "stateMutability": "nonpayable",
      "type": "function"
    },
    {
      "inputs": [
        {
          "internalType": "uint256",
          "name": "",
          "type": "uint256"
        }
      ],
      "name": "uri",
      "outputs": [
        {
          "internalType": "string",
          "name": "",
          "type": "string"
        }
      ],
      "stateMutability": "view",
      "type": "function"
    }
  ],
  "bytecode": "0x60806040526000600360146101000a81548160ff0219169083151502179055503480156200002c57600080fd5b506040518060800160405280604c815260200162003340604c91396200005881620000cd60201b60201c565b50620000796200006d620000e960201b60201c565b620000f160201b60201c565b6040518060400160405280600b81526020017f63727970746f446f6f727300000000000000000000000000000000000000000081525060049080519060200190620000c6929190620001b7565b50620002cc565b8060029080519060200190620000e5929190620001b7565b5050565b600033905090565b6000600360009054906101000a900473ffffffffffffffffffffffffffffffffffffffff16905081600360006101000a81548173ffffffffffffffffffffffffffffffffffffffff021916908373ffffffffffffffffffffffffffffffffffffffff1602179055508173ffffffffffffffffffffffffffffffffffffffff168173ffffffffffffffffffffffffffffffffffffffff167f8be0079c531659141344cd1fd0a4f28419497f9722a3daafe3b4186f6b6457e060405160405180910390a35050565b828054620001c59062000296565b90600052602060002090601f016020900481019282620001e9576000855562000235565b82601f106200020457805160ff191683800117855562000235565b8280016001018555821562000235579182015b828111156200023457825182559160200191906001019062000217565b5b50905062000244919062000248565b5090565b5b808211156200026357600081600090555060010162000249565b5090565b7f4e487b7100000000000000000000000000000000000000000000000000000000600052602260045260246000fd5b60006002820490506001821680620002af57607f821691505b60208210811415620002c657620002c562000267565b5b50919050565b61306480620002dc6000396000f3fe608060405234801561001057600080fd5b50600436106100f45760003560e01c80634fae864a11610097578063a22cb46511610066578063a22cb4651461026f578063e985e9c51461028b578063f242432a146102bb578063f2fde38b146102d7576100f4565b80634fae864a1461020f578063715018a61461022b5780638da5cb5b14610235578063a0712d6814610253576100f4565b806306fdde03116100d357806306fdde03146101755780630e89341c146101935780632eb2c2d6146101c35780634e1273f4146101df576100f4565b8062fdd58e146100f957806301ffc9a71461012957806302fe530514610159575b600080fd5b610113600480360381019061010e9190611afd565b6102f3565b6040516101209190611b4c565b60405180910390f35b610143600480360381019061013e9190611bbf565b6103bc565b6040516101509190611c07565b60405180910390f35b610173600480360381019061016e9190611d68565b61049e565b005b61017d6104b2565b60405161018a9190611e39565b60405180910390f35b6101ad60048036038101906101a89190611e5b565b610540565b6040516101ba9190611e39565b60405180910390f35b6101dd60048036038101906101d89190611ff1565b6105d4565b005b6101f960048036038101906101f49190612183565b610675565b60405161020691906122b9565b60405180910390f35b61022960048036038101906102249190612307565b61078e565b005b6102336107b3565b005b61023d6107c7565b60405161024a9190612343565b60405180910390f35b61026d60048036038101906102689190611e5b565b6107f1565b005b6102896004803603810190610284919061235e565b6108bc565b005b6102a560048036038101906102a0919061239e565b6108d2565b6040516102b29190611c07565b60405180910390f35b6102d560048036038101906102d091906123de565b610966565b005b6102f160048036038101906102ec9190612475565b610a07565b005b60008073ffffffffffffffffffffffffffffffffffffffff168373ffffffffffffffffffffffffffffffffffffffff161415610364576040517f08c379a000000000000000000000000000000000000000000000000000000000815260040161035b90612514565b60405180910390fd5b60008083815260200190815260200160002060008473ffffffffffffffffffffffffffffffffffffffff1673ffffffffffffffffffffffffffffffffffffffff16815260200190815260200160002054905092915050565b60007fd9b67a26000000000000000000000000000000000000000000000000000000007bffffffffffffffffffffffffffffffffffffffffffffffffffffffff1916827bffffffffffffffffffffffffffffffffffffffffffffffffffffffff1916148061048757507f0e89341c000000000000000000000000000000000000000000000000000000007bffffffffffffffffffffffffffffffffffffffffffffffffffffffff1916827bffffffffffffffffffffffffffffffffffffffffffffffffffffffff1916145b80610497575061049682610a8b565b5b9050919050565b6104a6610af5565b6104af81610b73565b50565b600480546104bf90612563565b80601f01602080910402602001604051908101604052809291908181526020018280546104eb90612563565b80156105385780601f1061050d57610100808354040283529160200191610538565b820191906000526020600020905b81548152906001019060200180831161051b57829003601f168201915b505050505081565b60606002805461054f90612563565b80601f016020809104026020016040519081016040528092919081815260200182805461057b90612563565b80156105c85780601f1061059d576101008083540402835291602001916105c8565b820191906000526020600020905b8154815290600101906020018083116105ab57829003601f168201915b50505050509050919050565b6105dc610b8d565b73ffffffffffffffffffffffffffffffffffffffff168573ffffffffffffffffffffffffffffffffffffffff16148061062257506106218561061c610b8d565b6108d2565b5b610661576040517f08c379a000000000000000000000000000000000000000000000000000000000815260040161065890612607565b60405180910390fd5b61066e8585858585610b95565b5050505050565b606081518351146106bb576040517f08c379a00000000000000000000000000000000000000000000000000000000081526004016106b290612699565b60405180910390fd5b6000835167ffffffffffffffff8111156106d8576106d7611c3d565b5b6040519080825280602002602001820160405280156107065781602001602082028036833780820191505090505b50905060005b84518110156107835761075385828151811061072b5761072a6126b9565b5b6020026020010151858381518110610746576107456126b9565b5b60200260200101516102f3565b828281518110610766576107656126b9565b5b6020026020010181815250508061077c90612717565b905061070c565b508091505092915050565b610796610af5565b80600360146101000a81548160ff02191690831515021790555050565b6107bb610af5565b6107c56000610eb7565b565b6000600360009054906101000a900473ffffffffffffffffffffffffffffffffffffffff16905090565b600060019050600082141580156108085750600582105b610847576040517f08c379a000000000000000000000000000000000000000000000000000000000815260040161083e906127d2565b60405180910390fd5b60001515600360149054906101000a900460ff1615151461089d576040517f08c379a00000000000000000000000000000000000000000000000000000000081526004016108949061283e565b60405180910390fd5b6108b833838360405180602001604052806000815250610f7d565b5050565b6108ce6108c7610b8d565b838361112e565b5050565b6000600160008473ffffffffffffffffffffffffffffffffffffffff1673ffffffffffffffffffffffffffffffffffffffff16815260200190815260200160002060008373ffffffffffffffffffffffffffffffffffffffff1673ffffffffffffffffffffffffffffffffffffffff16815260200190815260200160002060009054906101000a900460ff16905092915050565b61096e610b8d565b73ffffffffffffffffffffffffffffffffffffffff168573ffffffffffffffffffffffffffffffffffffffff1614806109b457506109b3856109ae610b8d565b6108d2565b5b6109f3576040517f08c379a00000000000000000000000000000000000000000000000000000000081526004016109ea90612607565b60405180910390fd5b610a00858585858561129b565b5050505050565b610a0f610af5565b600073ffffffffffffffffffffffffffffffffffffffff168173ffffffffffffffffffffffffffffffffffffffff161415610a7f576040517f08c379a0000000000000000000000000000000000000000000000000000000008152600401610a76906128d0565b60405180910390fd5b610a8881610eb7565b50565b60007f01ffc9a7000000000000000000000000000000000000000000000000000000007bffffffffffffffffffffffffffffffffffffffffffffffffffffffff1916827bffffffffffffffffffffffffffffffffffffffffffffffffffffffff1916149050919050565b610afd610b8d565b73ffffffffffffffffffffffffffffffffffffffff16610b1b6107c7565b73ffffffffffffffffffffffffffffffffffffffff1614610b71576040517f08c379a0000000000000000000000000000000000000000000000000000000008152600401610b689061293c565b60405180910390fd5b565b8060029080519060200190610b899291906119b2565b5050565b600033905090565b8151835114610bd9576040517f08c379a0000000000000000000000000000000000000000000000000000000008152600401610bd0906129ce565b60405180910390fd5b600073ffffffffffffffffffffffffffffffffffffffff168473ffffffffffffffffffffffffffffffffffffffff161415610c49576040517f08c379a0000000000000000000000000000000000000000000000000000000008152600401610c4090612a60565b60405180910390fd5b6000610c53610b8d565b9050610c63818787878787611537565b60005b8451811015610e14576000858281518110610c8457610c836126b9565b5b602002602001015190506000858381518110610ca357610ca26126b9565b5b60200260200101519050600080600084815260200190815260200160002060008b73ffffffffffffffffffffffffffffffffffffffff1673ffffffffffffffffffffffffffffffffffffffff16815260200190815260200160002054905081811015610d44576040517f08c379a0000000000000000000000000000000000000000000000000000000008152600401610d3b90612af2565b60405180910390fd5b81810360008085815260200190815260200160002060008c73ffffffffffffffffffffffffffffffffffffffff1673ffffffffffffffffffffffffffffffffffffffff168152602001908152602001600020819055508160008085815260200190815260200160002060008b73ffffffffffffffffffffffffffffffffffffffff1673ffffffffffffffffffffffffffffffffffffffff1681526020019081526020016000206000828254610df99190612b12565b9250508190555050505080610e0d90612717565b9050610c66565b508473ffffffffffffffffffffffffffffffffffffffff168673ffffffffffffffffffffffffffffffffffffffff168273ffffffffffffffffffffffffffffffffffffffff167f4a39dc06d4c0dbc64b70af90fd698a233a518aa5d07e595d983b8c0526c8f7fb8787604051610e8b929190612b68565b60405180910390a4610ea181878787878761153f565b610eaf818787878787611547565b505050505050565b6000600360009054906101000a900473ffffffffffffffffffffffffffffffffffffffff16905081600360006101000a81548173ffffffffffffffffffffffffffffffffffffffff021916908373ffffffffffffffffffffffffffffffffffffffff1602179055508173ffffffffffffffffffffffffffffffffffffffff168173ffffffffffffffffffffffffffffffffffffffff167f8be0079c531659141344cd1fd0a4f28419497f9722a3daafe3b4186f6b6457e060405160405180910390a35050565b600073ffffffffffffffffffffffffffffffffffffffff168473ffffffffffffffffffffffffffffffffffffffff161415610fed576040517f08c379a0000000000000000000000000000000000000000000000000000000008152600401610fe490612c11565b60405180910390fd5b6000610ff7610b8d565b905060006110048561172e565b905060006110118561172e565b905061102283600089858589611537565b8460008088815260200190815260200160002060008973ffffffffffffffffffffffffffffffffffffffff1673ffffffffffffffffffffffffffffffffffffffff16815260200190815260200160002060008282546110819190612b12565b925050819055508673ffffffffffffffffffffffffffffffffffffffff16600073ffffffffffffffffffffffffffffffffffffffff168473ffffffffffffffffffffffffffffffffffffffff167fc3d58168c5ae7397731d063d5bbf3d657854427343f4c083240f7aacaa2d0f6289896040516110ff929190612c31565b60405180910390a46111168360008985858961153f565b611125836000898989896117a8565b50505050505050565b8173ffffffffffffffffffffffffffffffffffffffff168373ffffffffffffffffffffffffffffffffffffffff16141561119d576040517f08c379a000000000000000000000000000000000000000000000000000000000815260040161119490612ccc565b60405180910390fd5b80600160008573ffffffffffffffffffffffffffffffffffffffff1673ffffffffffffffffffffffffffffffffffffffff16815260200190815260200160002060008473ffffffffffffffffffffffffffffffffffffffff1673ffffffffffffffffffffffffffffffffffffffff16815260200190815260200160002060006101000a81548160ff0219169083151502179055508173ffffffffffffffffffffffffffffffffffffffff168373ffffffffffffffffffffffffffffffffffffffff167f17307eab39ab6107e8899845ad3d59bd9653f200f220920489ca2b5937696c318360405161128e9190611c07565b60405180910390a3505050565b600073ffffffffffffffffffffffffffffffffffffffff168473ffffffffffffffffffffffffffffffffffffffff16141561130b576040517f08c379a000000000000000000000000000000000000000000000000000000000815260040161130290612a60565b60405180910390fd5b6000611315610b8d565b905060006113228561172e565b9050600061132f8561172e565b905061133f838989858589611537565b600080600088815260200190815260200160002060008a73ffffffffffffffffffffffffffffffffffffffff1673ffffffffffffffffffffffffffffffffffffffff168152602001908152602001600020549050858110156113d6576040517f08c379a00000000000000000000000000000000000000000000000000000000081526004016113cd90612af2565b60405180910390fd5b85810360008089815260200190815260200160002060008b73ffffffffffffffffffffffffffffffffffffffff1673ffffffffffffffffffffffffffffffffffffffff168152602001908152602001600020819055508560008089815260200190815260200160002060008a73ffffffffffffffffffffffffffffffffffffffff1673ffffffffffffffffffffffffffffffffffffffff168152602001908152602001600020600082825461148b9190612b12565b925050819055508773ffffffffffffffffffffffffffffffffffffffff168973ffffffffffffffffffffffffffffffffffffffff168573ffffffffffffffffffffffffffffffffffffffff167fc3d58168c5ae7397731d063d5bbf3d657854427343f4c083240f7aacaa2d0f628a8a604051611508929190612c31565b60405180910390a461151e848a8a86868a61153f565b61152c848a8a8a8a8a6117a8565b505050505050505050565b505050505050565b505050505050565b6115668473ffffffffffffffffffffffffffffffffffffffff1661198f565b15611726578373ffffffffffffffffffffffffffffffffffffffff1663bc197c8187878686866040518663ffffffff1660e01b81526004016115ac959493929190612d41565b602060405180830381600087803b1580156115c657600080fd5b505af19250505080156115f757506040513d601f19601f820116820180604052508101906115f49190612dbe565b60015b61169d57611603612df8565b806308c379a014156116605750611618612e1a565b806116235750611662565b806040517f08c379a00000000000000000000000000000000000000000000000000000000081526004016116579190611e39565b60405180910390fd5b505b6040517f08c379a000000000000000000000000000000000000000000000000000000000815260040161169490612f22565b60405180910390fd5b63bc197c8160e01b7bffffffffffffffffffffffffffffffffffffffffffffffffffffffff1916817bffffffffffffffffffffffffffffffffffffffffffffffffffffffff191614611724576040517f08c379a000000000000000000000000000000000000000000000000000000000815260040161171b90612fb4565b60405180910390fd5b505b505050505050565b60606000600167ffffffffffffffff81111561174d5761174c611c3d565b5b60405190808252806020026020018201604052801561177b5781602001602082028036833780820191505090505b5090508281600081518110611793576117926126b9565b5b60200260200101818152505080915050919050565b6117c78473ffffffffffffffffffffffffffffffffffffffff1661198f565b15611987578373ffffffffffffffffffffffffffffffffffffffff1663f23a6e6187878686866040518663ffffffff1660e01b815260040161180d959493929190612fd4565b602060405180830381600087803b15801561182757600080fd5b505af192505050801561185857506040513d601f19601f820116820180604052508101906118559190612dbe565b60015b6118fe57611864612df8565b806308c379a014156118c15750611879612e1a565b8061188457506118c3565b806040517f08c379a00000000000000000000000000000000000000000000000000000000081526004016118b89190611e39565b60405180910390fd5b505b6040517f08c379a00000000000000000000000000000000000000000000000000000000081526004016118f590612f22565b60405180910390fd5b63f23a6e6160e01b7bffffffffffffffffffffffffffffffffffffffffffffffffffffffff1916817bffffffffffffffffffffffffffffffffffffffffffffffffffffffff191614611985576040517f08c379a000000000000000000000000000000000000000000000000000000000815260040161197c90612fb4565b60405180910390fd5b505b505050505050565b6000808273ffffffffffffffffffffffffffffffffffffffff163b119050919050565b8280546119be90612563565b90600052602060002090601f0160209004810192826119e05760008555611a27565b82601f106119f957805160ff1916838001178555611a27565b82800160010185558215611a27579182015b82811115611a26578251825591602001919060010190611a0b565b5b509050611a349190611a38565b5090565b5b80821115611a51576000816000905550600101611a39565b5090565b6000604051905090565b600080fd5b600080fd5b600073ffffffffffffffffffffffffffffffffffffffff82169050919050565b6000611a9482611a69565b9050919050565b611aa481611a89565b8114611aaf57600080fd5b50565b600081359050611ac181611a9b565b92915050565b6000819050919050565b611ada81611ac7565b8114611ae557600080fd5b50565b600081359050611af781611ad1565b92915050565b60008060408385031215611b1457611b13611a5f565b5b6000611b2285828601611ab2565b9250506020611b3385828601611ae8565b9150509250929050565b611b4681611ac7565b82525050565b6000602082019050611b616000830184611b3d565b92915050565b60007fffffffff0000000000000000000000000000000000000000000000000000000082169050919050565b611b9c81611b67565b8114611ba757600080fd5b50565b600081359050611bb981611b93565b92915050565b600060208284031215611bd557611bd4611a5f565b5b6000611be384828501611baa565b91505092915050565b60008115159050919050565b611c0181611bec565b82525050565b6000602082019050611c1c6000830184611bf8565b92915050565b600080fd5b600080fd5b6000601f19601f8301169050919050565b7f4e487b7100000000000000000000000000000000000000000000000000000000600052604160045260246000fd5b611c7582611c2c565b810181811067ffffffffffffffff82111715611c9457611c93611c3d565b5b80604052505050565b6000611ca7611a55565b9050611cb38282611c6c565b919050565b600067ffffffffffffffff821115611cd357611cd2611c3d565b5b611cdc82611c2c565b9050602081019050919050565b82818337600083830152505050565b6000611d0b611d0684611cb8565b611c9d565b905082815260208101848484011115611d2757611d26611c27565b5b611d32848285611ce9565b509392505050565b600082601f830112611d4f57611d4e611c22565b5b8135611d5f848260208601611cf8565b91505092915050565b600060208284031215611d7e57611d7d611a5f565b5b600082013567ffffffffffffffff811115611d9c57611d9b611a64565b5b611da884828501611d3a565b91505092915050565b600081519050919050565b600082825260208201905092915050565b60005b83811015611deb578082015181840152602081019050611dd0565b83811115611dfa576000848401525b50505050565b6000611e0b82611db1565b611e158185611dbc565b9350611e25818560208601611dcd565b611e2e81611c2c565b840191505092915050565b60006020820190508181036000830152611e538184611e00565b905092915050565b600060208284031215611e7157611e70611a5f565b5b6000611e7f84828501611ae8565b91505092915050565b600067ffffffffffffffff821115611ea357611ea2611c3d565b5b602082029050602081019050919050565b600080fd5b6000611ecc611ec784611e88565b611c9d565b90508083825260208201905060208402830185811115611eef57611eee611eb4565b5b835b81811015611f185780611f048882611ae8565b845260208401935050602081019050611ef1565b5050509392505050565b600082601f830112611f3757611f36611c22565b5b8135611f47848260208601611eb9565b91505092915050565b600067ffffffffffffffff821115611f6b57611f6a611c3d565b5b611f7482611c2c565b9050602081019050919050565b6000611f94611f8f84611f50565b611c9d565b905082815260208101848484011115611fb057611faf611c27565b5b611fbb848285611ce9565b509392505050565b600082601f830112611fd857611fd7611c22565b5b8135611fe8848260208601611f81565b91505092915050565b600080600080600060a0868803121561200d5761200c611a5f565b5b600061201b88828901611ab2565b955050602061202c88828901611ab2565b945050604086013567ffffffffffffffff81111561204d5761204c611a64565b5b61205988828901611f22565b935050606086013567ffffffffffffffff81111561207a57612079611a64565b5b61208688828901611f22565b925050608086013567ffffffffffffffff8111156120a7576120a6611a64565b5b6120b388828901611fc3565b9150509295509295909350565b600067ffffffffffffffff8211156120db576120da611c3d565b5b602082029050602081019050919050565b60006120ff6120fa846120c0565b611c9d565b9050808382526020820190506020840283018581111561212257612121611eb4565b5b835b8181101561214b57806121378882611ab2565b845260208401935050602081019050612124565b5050509392505050565b600082601f83011261216a57612169611c22565b5b813561217a8482602086016120ec565b91505092915050565b6000806040838503121561219a57612199611a5f565b5b600083013567ffffffffffffffff8111156121b8576121b7611a64565b5b6121c485828601612155565b925050602083013567ffffffffffffffff8111156121e5576121e4611a64565b5b6121f185828601611f22565b9150509250929050565b600081519050919050565b600082825260208201905092915050565b6000819050602082019050919050565b61223081611ac7565b82525050565b60006122428383612227565b60208301905092915050565b6000602082019050919050565b6000612266826121fb565b6122708185612206565b935061227b83612217565b8060005b838110156122ac5781516122938882612236565b975061229e8361224e565b92505060018101905061227f565b5085935050505092915050565b600060208201905081810360008301526122d3818461225b565b905092915050565b6122e481611bec565b81146122ef57600080fd5b50565b600081359050612301816122db565b92915050565b60006020828403121561231d5761231c611a5f565b5b600061232b848285016122f2565b91505092915050565b61233d81611a89565b82525050565b60006020820190506123586000830184612334565b92915050565b6000806040838503121561237557612374611a5f565b5b600061238385828601611ab2565b9250506020612394858286016122f2565b9150509250929050565b600080604083850312156123b5576123b4611a5f565b5b60006123c385828601611ab2565b92505060206123d485828601611ab2565b9150509250929050565b600080600080600060a086880312156123fa576123f9611a5f565b5b600061240888828901611ab2565b955050602061241988828901611ab2565b945050604061242a88828901611ae8565b935050606061243b88828901611ae8565b925050608086013567ffffffffffffffff81111561245c5761245b611a64565b5b61246888828901611fc3565b9150509295509295909350565b60006020828403121561248b5761248a611a5f565b5b600061249984828501611ab2565b91505092915050565b7f455243313135353a2061646472657373207a65726f206973206e6f742061207660008201527f616c6964206f776e657200000000000000000000000000000000000000000000602082015250565b60006124fe602a83611dbc565b9150612509826124a2565b604082019050919050565b6000602082019050818103600083015261252d816124f1565b9050919050565b7f4e487b7100000000000000000000000000000000000000000000000000000000600052602260045260246000fd5b6000600282049050600182168061257b57607f821691505b6020821081141561258f5761258e612534565b5b50919050565b7f455243313135353a2063616c6c6572206973206e6f7420746f6b656e206f776e60008201527f6572206e6f7220617070726f7665640000000000000000000000000000000000602082015250565b60006125f1602f83611dbc565b91506125fc82612595565b604082019050919050565b60006020820190508181036000830152612620816125e4565b9050919050565b7f455243313135353a206163636f756e747320616e6420696473206c656e67746860008201527f206d69736d617463680000000000000000000000000000000000000000000000602082015250565b6000612683602983611dbc565b915061268e82612627565b604082019050919050565b600060208201905081810360008301526126b281612676565b9050919050565b7f4e487b7100000000000000000000000000000000000000000000000000000000600052603260045260246000fd5b7f4e487b7100000000000000000000000000000000000000000000000000000000600052601160045260246000fd5b600061272282611ac7565b91507fffffffffffffffffffffffffffffffffffffffffffffffffffffffffffffffff821415612755576127546126e8565b5b600182019050919050565b7f69642063616e6e6f7420657175616c207a65726f20616e64206f6e6c7920342060008201527f4e46547320617661696c61626c65000000000000000000000000000000000000602082015250565b60006127bc602e83611dbc565b91506127c782612760565b604082019050919050565b600060208201905081810360008301526127eb816127af565b9050919050565b7f6f776e6572206861732073746f70706564206d696e742066756e6374696f6e2e600082015250565b6000612828602083611dbc565b9150612833826127f2565b602082019050919050565b600060208201905081810360008301526128578161281b565b9050919050565b7f4f776e61626c653a206e6577206f776e657220697320746865207a65726f206160008201527f6464726573730000000000000000000000000000000000000000000000000000602082015250565b60006128ba602683611dbc565b91506128c58261285e565b604082019050919050565b600060208201905081810360008301526128e9816128ad565b9050919050565b7f4f776e61626c653a2063616c6c6572206973206e6f7420746865206f776e6572600082015250565b6000612926602083611dbc565b9150612931826128f0565b602082019050919050565b6000602082019050818103600083015261295581612919565b9050919050565b7f455243313135353a2069647320616e6420616d6f756e7473206c656e6774682060008201527f6d69736d61746368000000000000000000000000000000000000000000000000602082015250565b60006129b8602883611dbc565b91506129c38261295c565b604082019050919050565b600060208201905081810360008301526129e7816129ab565b9050919050565b7f455243313135353a207472616e7366657220746f20746865207a65726f20616460008201527f6472657373000000000000000000000000000000000000000000000000000000602082015250565b6000612a4a602583611dbc565b9150612a55826129ee565b604082019050919050565b60006020820190508181036000830152612a7981612a3d565b9050919050565b7f455243313135353a20696e73756666696369656e742062616c616e636520666f60008201527f72207472616e7366657200000000000000000000000000000000000000000000602082015250565b6000612adc602a83611dbc565b9150612ae782612a80565b604082019050919050565b60006020820190508181036000830152612b0b81612acf565b9050919050565b6000612b1d82611ac7565b9150612b2883611ac7565b9250827fffffffffffffffffffffffffffffffffffffffffffffffffffffffffffffffff03821115612b5d57612b5c6126e8565b5b828201905092915050565b60006040820190508181036000830152612b82818561225b565b90508181036020830152612b96818461225b565b90509392505050565b7f455243313135353a206d696e7420746f20746865207a65726f2061646472657360008201527f7300000000000000000000000000000000000000000000000000000000000000602082015250565b6000612bfb602183611dbc565b9150612c0682612b9f565b604082019050919050565b60006020820190508181036000830152612c2a81612bee565b9050919050565b6000604082019050612c466000830185611b3d565b612c536020830184611b3d565b9392505050565b7f455243313135353a2073657474696e6720617070726f76616c2073746174757360008201527f20666f722073656c660000000000000000000000000000000000000000000000602082015250565b6000612cb6602983611dbc565b9150612cc182612c5a565b604082019050919050565b60006020820190508181036000830152612ce581612ca9565b9050919050565b600081519050919050565b600082825260208201905092915050565b6000612d1382612cec565b612d1d8185612cf7565b9350612d2d818560208601611dcd565b612d3681611c2c565b840191505092915050565b600060a082019050612d566000830188612334565b612d636020830187612334565b8181036040830152612d75818661225b565b90508181036060830152612d89818561225b565b90508181036080830152612d9d8184612d08565b90509695505050505050565b600081519050612db881611b93565b92915050565b600060208284031215612dd457612dd3611a5f565b5b6000612de284828501612da9565b91505092915050565b60008160e01c9050919050565b600060033d1115612e175760046000803e612e14600051612deb565b90505b90565b600060443d1015612e2a57612ead565b612e32611a55565b60043d036004823e80513d602482011167ffffffffffffffff82111715612e5a575050612ead565b808201805167ffffffffffffffff811115612e785750505050612ead565b80602083010160043d038501811115612e95575050505050612ead565b612ea482602001850186611c6c565b82955050505050505b90565b7f455243313135353a207472616e7366657220746f206e6f6e204552433131353560008201527f526563656976657220696d706c656d656e746572000000000000000000000000602082015250565b6000612f0c603483611dbc565b9150612f1782612eb0565b604082019050919050565b60006020820190508181036000830152612f3b81612eff565b9050919050565b7f455243313135353a204552433131353552656365697665722072656a6563746560008201527f6420746f6b656e73000000000000000000000000000000000000000000000000602082015250565b6000612f9e602883611dbc565b9150612fa982612f42565b604082019050919050565b60006020820190508181036000830152612fcd81612f91565b9050919050565b600060a082019050612fe96000830188612334565b612ff66020830187612334565b6130036040830186611b3d565b6130106060830185611b3d565b81810360808301526130228184612d08565b9050969550505050505056fea264697066735822122018d21882e99d3e47d8c784508c2c9ccfeab857e0c0883c073fbbe13344fbc1ff64736f6c63430008090033697066733a2f2f62616679626569657766336c6c77656b6e6b7265366b657664333633666870763471716672326e766572773632706e656e376c6e73666467796f792f7b69647d2e6a736f6e",
  "linkReferences": {},
  "deployedLinkReferences": {}
}